{
    "_format": "hh-sol-artifact-1",
    "contractName": "MyToken",
    "sourceName": "contracts/ERC20Votes.sol",
    "abi": [
        {
            "inputs": [],
            "stateMutability": "nonpayable",
            "type": "constructor"
        },
        {
            "anonymous": false,
            "inputs": [
                {
                    "indexed": true,
                    "internalType": "address",
                    "name": "owner",
                    "type": "address"
                },
                {
                    "indexed": true,
                    "internalType": "address",
                    "name": "spender",
                    "type": "address"
                },
                {
                    "indexed": false,
                    "internalType": "uint256",
                    "name": "value",
                    "type": "uint256"
                }
            ],
            "name": "Approval",
            "type": "event"
        },
        {
            "anonymous": false,
            "inputs": [
                {
                    "indexed": true,
                    "internalType": "address",
                    "name": "delegator",
                    "type": "address"
                },
                {
                    "indexed": true,
                    "internalType": "address",
                    "name": "fromDelegate",
                    "type": "address"
                },
                {
                    "indexed": true,
                    "internalType": "address",
                    "name": "toDelegate",
                    "type": "address"
                }
            ],
            "name": "DelegateChanged",
            "type": "event"
        },
        {
            "anonymous": false,
            "inputs": [
                {
                    "indexed": true,
                    "internalType": "address",
                    "name": "delegate",
                    "type": "address"
                },
                {
                    "indexed": false,
                    "internalType": "uint256",
                    "name": "previousBalance",
                    "type": "uint256"
                },
                {
                    "indexed": false,
                    "internalType": "uint256",
                    "name": "newBalance",
                    "type": "uint256"
                }
            ],
            "name": "DelegateVotesChanged",
            "type": "event"
        },
        {
            "anonymous": false,
            "inputs": [
                {
                    "indexed": true,
                    "internalType": "bytes32",
                    "name": "role",
                    "type": "bytes32"
                },
                {
                    "indexed": true,
                    "internalType": "bytes32",
                    "name": "previousAdminRole",
                    "type": "bytes32"
                },
                {
                    "indexed": true,
                    "internalType": "bytes32",
                    "name": "newAdminRole",
                    "type": "bytes32"
                }
            ],
            "name": "RoleAdminChanged",
            "type": "event"
        },
        {
            "anonymous": false,
            "inputs": [
                {
                    "indexed": true,
                    "internalType": "bytes32",
                    "name": "role",
                    "type": "bytes32"
                },
                {
                    "indexed": true,
                    "internalType": "address",
                    "name": "account",
                    "type": "address"
                },
                {
                    "indexed": true,
                    "internalType": "address",
                    "name": "sender",
                    "type": "address"
                }
            ],
            "name": "RoleGranted",
            "type": "event"
        },
        {
            "anonymous": false,
            "inputs": [
                {
                    "indexed": true,
                    "internalType": "bytes32",
                    "name": "role",
                    "type": "bytes32"
                },
                {
                    "indexed": true,
                    "internalType": "address",
                    "name": "account",
                    "type": "address"
                },
                {
                    "indexed": true,
                    "internalType": "address",
                    "name": "sender",
                    "type": "address"
                }
            ],
            "name": "RoleRevoked",
            "type": "event"
        },
        {
            "anonymous": false,
            "inputs": [
                {
                    "indexed": true,
                    "internalType": "address",
                    "name": "from",
                    "type": "address"
                },
                {
                    "indexed": true,
                    "internalType": "address",
                    "name": "to",
                    "type": "address"
                },
                {
                    "indexed": false,
                    "internalType": "uint256",
                    "name": "value",
                    "type": "uint256"
                }
            ],
            "name": "Transfer",
            "type": "event"
        },
        {
            "inputs": [],
            "name": "DEFAULT_ADMIN_ROLE",
            "outputs": [
                {
                    "internalType": "bytes32",
                    "name": "",
                    "type": "bytes32"
                }
            ],
            "stateMutability": "view",
            "type": "function"
        },
        {
            "inputs": [],
            "name": "DOMAIN_SEPARATOR",
            "outputs": [
                {
                    "internalType": "bytes32",
                    "name": "",
                    "type": "bytes32"
                }
            ],
            "stateMutability": "view",
            "type": "function"
        },
        {
            "inputs": [],
            "name": "MINTER_ROLE",
            "outputs": [
                {
                    "internalType": "bytes32",
                    "name": "",
                    "type": "bytes32"
                }
            ],
            "stateMutability": "view",
            "type": "function"
        },
        {
            "inputs": [
                {
                    "internalType": "address",
                    "name": "owner",
                    "type": "address"
                },
                {
                    "internalType": "address",
                    "name": "spender",
                    "type": "address"
                }
            ],
            "name": "allowance",
            "outputs": [
                {
                    "internalType": "uint256",
                    "name": "",
                    "type": "uint256"
                }
            ],
            "stateMutability": "view",
            "type": "function"
        },
        {
            "inputs": [
                {
                    "internalType": "address",
                    "name": "spender",
                    "type": "address"
                },
                {
                    "internalType": "uint256",
                    "name": "amount",
                    "type": "uint256"
                }
            ],
            "name": "approve",
            "outputs": [
                {
                    "internalType": "bool",
                    "name": "",
                    "type": "bool"
                }
            ],
            "stateMutability": "nonpayable",
            "type": "function"
        },
        {
            "inputs": [
                {
                    "internalType": "address",
                    "name": "account",
                    "type": "address"
                }
            ],
            "name": "balanceOf",
            "outputs": [
                {
                    "internalType": "uint256",
                    "name": "",
                    "type": "uint256"
                }
            ],
            "stateMutability": "view",
            "type": "function"
        },
        {
            "inputs": [
                {
                    "internalType": "uint256",
                    "name": "amount",
                    "type": "uint256"
                }
            ],
            "name": "burn",
            "outputs": [],
            "stateMutability": "nonpayable",
            "type": "function"
        },
        {
            "inputs": [
                {
                    "internalType": "address",
                    "name": "account",
                    "type": "address"
                },
                {
                    "internalType": "uint256",
                    "name": "amount",
                    "type": "uint256"
                }
            ],
            "name": "burnFrom",
            "outputs": [],
            "stateMutability": "nonpayable",
            "type": "function"
        },
        {
            "inputs": [
                {
                    "internalType": "address",
                    "name": "account",
                    "type": "address"
                },
                {
                    "internalType": "uint32",
                    "name": "pos",
                    "type": "uint32"
                }
            ],
            "name": "checkpoints",
            "outputs": [
                {
                    "components": [
                        {
                            "internalType": "uint32",
                            "name": "fromBlock",
                            "type": "uint32"
                        },
                        {
                            "internalType": "uint224",
                            "name": "votes",
                            "type": "uint224"
                        }
                    ],
                    "internalType": "struct ERC20Votes.Checkpoint",
                    "name": "",
                    "type": "tuple"
                }
            ],
            "stateMutability": "view",
            "type": "function"
        },
        {
            "inputs": [],
            "name": "decimals",
            "outputs": [
                {
                    "internalType": "uint8",
                    "name": "",
                    "type": "uint8"
                }
            ],
            "stateMutability": "view",
            "type": "function"
        },
        {
            "inputs": [
                {
                    "internalType": "address",
                    "name": "spender",
                    "type": "address"
                },
                {
                    "internalType": "uint256",
                    "name": "subtractedValue",
                    "type": "uint256"
                }
            ],
            "name": "decreaseAllowance",
            "outputs": [
                {
                    "internalType": "bool",
                    "name": "",
                    "type": "bool"
                }
            ],
            "stateMutability": "nonpayable",
            "type": "function"
        },
        {
            "inputs": [
                {
                    "internalType": "address",
                    "name": "delegatee",
                    "type": "address"
                }
            ],
            "name": "delegate",
            "outputs": [],
            "stateMutability": "nonpayable",
            "type": "function"
        },
        {
            "inputs": [
                {
                    "internalType": "address",
                    "name": "delegatee",
                    "type": "address"
                },
                {
                    "internalType": "uint256",
                    "name": "nonce",
                    "type": "uint256"
                },
                {
                    "internalType": "uint256",
                    "name": "expiry",
                    "type": "uint256"
                },
                {
                    "internalType": "uint8",
                    "name": "v",
                    "type": "uint8"
                },
                {
                    "internalType": "bytes32",
                    "name": "r",
                    "type": "bytes32"
                },
                {
                    "internalType": "bytes32",
                    "name": "s",
                    "type": "bytes32"
                }
            ],
            "name": "delegateBySig",
            "outputs": [],
            "stateMutability": "nonpayable",
            "type": "function"
        },
        {
            "inputs": [
                {
                    "internalType": "address",
                    "name": "account",
                    "type": "address"
                }
            ],
            "name": "delegates",
            "outputs": [
                {
                    "internalType": "address",
                    "name": "",
                    "type": "address"
                }
            ],
            "stateMutability": "view",
            "type": "function"
        },
        {
            "inputs": [
                {
                    "internalType": "uint256",
                    "name": "blockNumber",
                    "type": "uint256"
                }
            ],
            "name": "getPastTotalSupply",
            "outputs": [
                {
                    "internalType": "uint256",
                    "name": "",
                    "type": "uint256"
                }
            ],
            "stateMutability": "view",
            "type": "function"
        },
        {
            "inputs": [
                {
                    "internalType": "address",
                    "name": "account",
                    "type": "address"
                },
                {
                    "internalType": "uint256",
                    "name": "blockNumber",
                    "type": "uint256"
                }
            ],
            "name": "getPastVotes",
            "outputs": [
                {
                    "internalType": "uint256",
                    "name": "",
                    "type": "uint256"
                }
            ],
            "stateMutability": "view",
            "type": "function"
        },
        {
            "inputs": [
                {
                    "internalType": "bytes32",
                    "name": "role",
                    "type": "bytes32"
                }
            ],
            "name": "getRoleAdmin",
            "outputs": [
                {
                    "internalType": "bytes32",
                    "name": "",
                    "type": "bytes32"
                }
            ],
            "stateMutability": "view",
            "type": "function"
        },
        {
            "inputs": [
                {
                    "internalType": "address",
                    "name": "account",
                    "type": "address"
                }
            ],
            "name": "getVotes",
            "outputs": [
                {
                    "internalType": "uint256",
                    "name": "",
                    "type": "uint256"
                }
            ],
            "stateMutability": "view",
            "type": "function"
        },
        {
            "inputs": [
                {
                    "internalType": "bytes32",
                    "name": "role",
                    "type": "bytes32"
                },
                {
                    "internalType": "address",
                    "name": "account",
                    "type": "address"
                }
            ],
            "name": "grantRole",
            "outputs": [],
            "stateMutability": "nonpayable",
            "type": "function"
        },
        {
            "inputs": [
                {
                    "internalType": "bytes32",
                    "name": "role",
                    "type": "bytes32"
                },
                {
                    "internalType": "address",
                    "name": "account",
                    "type": "address"
                }
            ],
            "name": "hasRole",
            "outputs": [
                {
                    "internalType": "bool",
                    "name": "",
                    "type": "bool"
                }
            ],
            "stateMutability": "view",
            "type": "function"
        },
        {
            "inputs": [
                {
                    "internalType": "address",
                    "name": "spender",
                    "type": "address"
                },
                {
                    "internalType": "uint256",
                    "name": "addedValue",
                    "type": "uint256"
                }
            ],
            "name": "increaseAllowance",
            "outputs": [
                {
                    "internalType": "bool",
                    "name": "",
                    "type": "bool"
                }
            ],
            "stateMutability": "nonpayable",
            "type": "function"
        },
        {
            "inputs": [
                {
                    "internalType": "address",
                    "name": "to",
                    "type": "address"
                },
                {
                    "internalType": "uint256",
                    "name": "amount",
                    "type": "uint256"
                }
            ],
            "name": "mint",
            "outputs": [],
            "stateMutability": "nonpayable",
            "type": "function"
        },
        {
            "inputs": [],
            "name": "name",
            "outputs": [
                {
                    "internalType": "string",
                    "name": "",
                    "type": "string"
                }
            ],
            "stateMutability": "view",
            "type": "function"
        },
        {
            "inputs": [
                {
                    "internalType": "address",
                    "name": "owner",
                    "type": "address"
                }
            ],
            "name": "nonces",
            "outputs": [
                {
                    "internalType": "uint256",
                    "name": "",
                    "type": "uint256"
                }
            ],
            "stateMutability": "view",
            "type": "function"
        },
        {
            "inputs": [
                {
                    "internalType": "address",
                    "name": "account",
                    "type": "address"
                }
            ],
            "name": "numCheckpoints",
            "outputs": [
                {
                    "internalType": "uint32",
                    "name": "",
                    "type": "uint32"
                }
            ],
            "stateMutability": "view",
            "type": "function"
        },
        {
            "inputs": [
                {
                    "internalType": "address",
                    "name": "owner",
                    "type": "address"
                },
                {
                    "internalType": "address",
                    "name": "spender",
                    "type": "address"
                },
                {
                    "internalType": "uint256",
                    "name": "value",
                    "type": "uint256"
                },
                {
                    "internalType": "uint256",
                    "name": "deadline",
                    "type": "uint256"
                },
                {
                    "internalType": "uint8",
                    "name": "v",
                    "type": "uint8"
                },
                {
                    "internalType": "bytes32",
                    "name": "r",
                    "type": "bytes32"
                },
                {
                    "internalType": "bytes32",
                    "name": "s",
                    "type": "bytes32"
                }
            ],
            "name": "permit",
            "outputs": [],
            "stateMutability": "nonpayable",
            "type": "function"
        },
        {
            "inputs": [
                {
                    "internalType": "bytes32",
                    "name": "role",
                    "type": "bytes32"
                },
                {
                    "internalType": "address",
                    "name": "account",
                    "type": "address"
                }
            ],
            "name": "renounceRole",
            "outputs": [],
            "stateMutability": "nonpayable",
            "type": "function"
        },
        {
            "inputs": [
                {
                    "internalType": "bytes32",
                    "name": "role",
                    "type": "bytes32"
                },
                {
                    "internalType": "address",
                    "name": "account",
                    "type": "address"
                }
            ],
            "name": "revokeRole",
            "outputs": [],
            "stateMutability": "nonpayable",
            "type": "function"
        },
        {
            "inputs": [
                {
                    "internalType": "bytes4",
                    "name": "interfaceId",
                    "type": "bytes4"
                }
            ],
            "name": "supportsInterface",
            "outputs": [
                {
                    "internalType": "bool",
                    "name": "",
                    "type": "bool"
                }
            ],
            "stateMutability": "view",
            "type": "function"
        },
        {
            "inputs": [],
            "name": "symbol",
            "outputs": [
                {
                    "internalType": "string",
                    "name": "",
                    "type": "string"
                }
            ],
            "stateMutability": "view",
            "type": "function"
        },
        {
            "inputs": [],
            "name": "totalSupply",
            "outputs": [
                {
                    "internalType": "uint256",
                    "name": "",
                    "type": "uint256"
                }
            ],
            "stateMutability": "view",
            "type": "function"
        },
        {
            "inputs": [
                {
                    "internalType": "address",
                    "name": "to",
                    "type": "address"
                },
                {
                    "internalType": "uint256",
                    "name": "amount",
                    "type": "uint256"
                }
            ],
            "name": "transfer",
            "outputs": [
                {
                    "internalType": "bool",
                    "name": "",
                    "type": "bool"
                }
            ],
            "stateMutability": "nonpayable",
            "type": "function"
        },
        {
            "inputs": [
                {
                    "internalType": "address",
                    "name": "from",
                    "type": "address"
                },
                {
                    "internalType": "address",
                    "name": "to",
                    "type": "address"
                },
                {
                    "internalType": "uint256",
                    "name": "amount",
                    "type": "uint256"
                }
            ],
            "name": "transferFrom",
            "outputs": [
                {
                    "internalType": "bool",
                    "name": "",
                    "type": "bool"
                }
            ],
            "stateMutability": "nonpayable",
            "type": "function"
        }
    ],
    "bytecode": "0x6101406040523480156200001257600080fd5b506040518060400160405280600781526020017f4d79546f6b656e00000000000000000000000000000000000000000000000000815250806040518060400160405280600181526020017f31000000000000000000000000000000000000000000000000000000000000008152506040518060400160405280600781526020017f4d79546f6b656e000000000000000000000000000000000000000000000000008152506040518060400160405280600381526020017f4d544b00000000000000000000000000000000000000000000000000000000008152508160039081620000fd91906200062d565b5080600490816200010f91906200062d565b50505060008280519060200120905060008280519060200120905060007f8b73c3c69bb8fe3d512ecc4cf759cc79239f7b179b0ffacaa9a75d522b39400f90508260e081815250508161010081815250504660a081815250506200017b8184846200021260201b60201c565b608081815250503073ffffffffffffffffffffffffffffffffffffffff1660c08173ffffffffffffffffffffffffffffffffffffffff1681525050806101208181525050505050505050620001da6000801b336200024e60201b60201c565b6200020c7f9f2df0fed2c77648de5860a4cc508cd0818c85b8b8a1ab4ceeef8d981c8956a6336200024e60201b60201c565b620007e2565b600083838346306040516020016200022f95949392919062000785565b6040516020818303038152906040528051906020012090509392505050565b6200026082826200034060201b60201c565b6200033c5760016005600084815260200190815260200160002060000160008373ffffffffffffffffffffffffffffffffffffffff1673ffffffffffffffffffffffffffffffffffffffff16815260200190815260200160002060006101000a81548160ff021916908315150217905550620002e1620003ab60201b60201c565b73ffffffffffffffffffffffffffffffffffffffff168173ffffffffffffffffffffffffffffffffffffffff16837f2f8788117e7eff1d82e926ec794901d17c78024a50270940304540a733656f0d60405160405180910390a45b5050565b60006005600084815260200190815260200160002060000160008373ffffffffffffffffffffffffffffffffffffffff1673ffffffffffffffffffffffffffffffffffffffff16815260200190815260200160002060009054906101000a900460ff16905092915050565b600033905090565b600081519050919050565b7f4e487b7100000000000000000000000000000000000000000000000000000000600052604160045260246000fd5b7f4e487b7100000000000000000000000000000000000000000000000000000000600052602260045260246000fd5b600060028204905060018216806200043557607f821691505b6020821081036200044b576200044a620003ed565b5b50919050565b60008190508160005260206000209050919050565b60006020601f8301049050919050565b600082821b905092915050565b600060088302620004b57fffffffffffffffffffffffffffffffffffffffffffffffffffffffffffffffff8262000476565b620004c1868362000476565b95508019841693508086168417925050509392505050565b6000819050919050565b6000819050919050565b60006200050e620005086200050284620004d9565b620004e3565b620004d9565b9050919050565b6000819050919050565b6200052a83620004ed565b62000542620005398262000515565b84845462000483565b825550505050565b600090565b620005596200054a565b620005668184846200051f565b505050565b5b818110156200058e57620005826000826200054f565b6001810190506200056c565b5050565b601f821115620005dd57620005a78162000451565b620005b28462000466565b81016020851015620005c2578190505b620005da620005d18562000466565b8301826200056b565b50505b505050565b600082821c905092915050565b60006200060260001984600802620005e2565b1980831691505092915050565b60006200061d8383620005ef565b9150826002028217905092915050565b6200063882620003b3565b67ffffffffffffffff811115620006545762000653620003be565b5b6200066082546200041c565b6200066d82828562000592565b600060209050601f831160018114620006a5576000841562000690578287015190505b6200069c85826200060f565b8655506200070c565b601f198416620006b58662000451565b60005b82811015620006df57848901518255600182019150602085019450602081019050620006b8565b86831015620006ff5784890151620006fb601f891682620005ef565b8355505b6001600288020188555050505b505050505050565b6000819050919050565b620007298162000714565b82525050565b6200073a81620004d9565b82525050565b600073ffffffffffffffffffffffffffffffffffffffff82169050919050565b60006200076d8262000740565b9050919050565b6200077f8162000760565b82525050565b600060a0820190506200079c60008301886200071e565b620007ab60208301876200071e565b620007ba60408301866200071e565b620007c960608301856200072f565b620007d8608083018462000774565b9695505050505050565b60805160a05160c05160e051610100516101205161475e6200083260003960006119f301526000611a3501526000611a14015260006119490152600061199f015260006119c8015261475e6000f3fe608060405234801561001057600080fd5b50600436106101fb5760003560e01c80636fcfff451161011a578063a217fddf116100ad578063d505accf1161007c578063d505accf14610648578063d539139314610664578063d547741f14610682578063dd62ed3e1461069e578063f1127ed8146106ce576101fb565b8063a217fddf146105ae578063a457c2d7146105cc578063a9059cbb146105fc578063c3cda5201461062c576101fb565b80638e539e8c116100e95780638e539e8c1461050057806391d148541461053057806395d89b41146105605780639ab24eb01461057e576101fb565b80636fcfff451461045457806370a082311461048457806379cc6790146104b45780637ecebe00146104d0576101fb565b80633644e5151161019257806340c10f191161016157806340c10f19146103d057806342966c68146103ec578063587cde1e146104085780635c19a95c14610438576101fb565b80633644e5151461033657806336568abe1461035457806339509351146103705780633a46b1a8146103a0576101fb565b806323b872dd116101ce57806323b872dd1461029c578063248a9ca3146102cc5780632f2ff15d146102fc578063313ce56714610318576101fb565b806301ffc9a71461020057806306fdde0314610230578063095ea7b31461024e57806318160ddd1461027e575b600080fd5b61021a60048036038101906102159190612ecd565b6106fe565b6040516102279190612f15565b60405180910390f35b610238610778565b6040516102459190612fc0565b60405180910390f35b61026860048036038101906102639190613076565b61080a565b6040516102759190612f15565b60405180910390f35b61028661082d565b60405161029391906130c5565b60405180910390f35b6102b660048036038101906102b191906130e0565b610837565b6040516102c39190612f15565b60405180910390f35b6102e660048036038101906102e19190613169565b610866565b6040516102f391906131a5565b60405180910390f35b610316600480360381019061031191906131c0565b610886565b005b6103206108a7565b60405161032d919061321c565b60405180910390f35b61033e6108b0565b60405161034b91906131a5565b60405180910390f35b61036e600480360381019061036991906131c0565b6108bf565b005b61038a60048036038101906103859190613076565b610942565b6040516103979190612f15565b60405180910390f35b6103ba60048036038101906103b59190613076565b610979565b6040516103c791906130c5565b60405180910390f35b6103ea60048036038101906103e59190613076565b610a0d565b005b61040660048036038101906104019190613237565b610a46565b005b610422600480360381019061041d9190613264565b610a5a565b60405161042f91906132a0565b60405180910390f35b610452600480360381019061044d9190613264565b610ac3565b005b61046e60048036038101906104699190613264565b610ad7565b60405161047b91906132da565b60405180910390f35b61049e60048036038101906104999190613264565b610b2b565b6040516104ab91906130c5565b60405180910390f35b6104ce60048036038101906104c99190613076565b610b73565b005b6104ea60048036038101906104e59190613264565b610b93565b6040516104f791906130c5565b60405180910390f35b61051a60048036038101906105159190613237565b610be3565b60405161052791906130c5565b60405180910390f35b61054a600480360381019061054591906131c0565b610c39565b6040516105579190612f15565b60405180910390f35b610568610ca4565b6040516105759190612fc0565b60405180910390f35b61059860048036038101906105939190613264565b610d36565b6040516105a591906130c5565b60405180910390f35b6105b6610e47565b6040516105c391906131a5565b60405180910390f35b6105e660048036038101906105e19190613076565b610e4e565b6040516105f39190612f15565b60405180910390f35b61061660048036038101906106119190613076565b610ec5565b6040516106239190612f15565b60405180910390f35b61064660048036038101906106419190613321565b610ee8565b005b610662600480360381019061065d91906133ae565b610fec565b005b61066c61112e565b60405161067991906131a5565b60405180910390f35b61069c600480360381019061069791906131c0565b611152565b005b6106b860048036038101906106b39190613450565b611173565b6040516106c591906130c5565b60405180910390f35b6106e860048036038101906106e391906134bc565b6111fa565b6040516106f59190613571565b60405180910390f35b60007f7965db0b000000000000000000000000000000000000000000000000000000007bffffffffffffffffffffffffffffffffffffffffffffffffffffffff1916827bffffffffffffffffffffffffffffffffffffffffffffffffffffffff1916148061077157506107708261130a565b5b9050919050565b606060038054610787906135bb565b80601f01602080910402602001604051908101604052809291908181526020018280546107b3906135bb565b80156108005780601f106107d557610100808354040283529160200191610800565b820191906000526020600020905b8154815290600101906020018083116107e357829003601f168201915b5050505050905090565b600080610815611374565b905061082281858561137c565b600191505092915050565b6000600254905090565b600080610842611374565b905061084f858285611545565b61085a8585856115d1565b60019150509392505050565b600060056000838152602001908152602001600020600101549050919050565b61088f82610866565b61089881611850565b6108a28383611864565b505050565b60006012905090565b60006108ba611945565b905090565b6108c7611374565b73ffffffffffffffffffffffffffffffffffffffff168173ffffffffffffffffffffffffffffffffffffffff1614610934576040517f08c379a000000000000000000000000000000000000000000000000000000000815260040161092b9061365e565b60405180910390fd5b61093e8282611a5f565b5050565b60008061094d611374565b905061096e81858561095f8589611173565b61096991906136ad565b61137c565b600191505092915050565b60004382106109bd576040517f08c379a00000000000000000000000000000000000000000000000000000000081526004016109b49061372d565b60405180910390fd5b610a05600960008573ffffffffffffffffffffffffffffffffffffffff1673ffffffffffffffffffffffffffffffffffffffff16815260200190815260200160002083611b41565b905092915050565b7f9f2df0fed2c77648de5860a4cc508cd0818c85b8b8a1ab4ceeef8d981c8956a6610a3781611850565b610a418383611c4d565b505050565b610a57610a51611374565b82611c5b565b50565b6000600860008373ffffffffffffffffffffffffffffffffffffffff1673ffffffffffffffffffffffffffffffffffffffff16815260200190815260200160002060009054906101000a900473ffffffffffffffffffffffffffffffffffffffff169050919050565b610ad4610ace611374565b82611c69565b50565b6000610b24600960008473ffffffffffffffffffffffffffffffffffffffff1673ffffffffffffffffffffffffffffffffffffffff16815260200190815260200160002080549050611d83565b9050919050565b60008060008373ffffffffffffffffffffffffffffffffffffffff1673ffffffffffffffffffffffffffffffffffffffff168152602001908152602001600020549050919050565b610b8582610b7f611374565b83611545565b610b8f8282611c5b565b5050565b6000610bdc600660008473ffffffffffffffffffffffffffffffffffffffff1673ffffffffffffffffffffffffffffffffffffffff168152602001908152602001600020611dd6565b9050919050565b6000438210610c27576040517f08c379a0000000000000000000000000000000000000000000000000000000008152600401610c1e9061372d565b60405180910390fd5b610c32600a83611b41565b9050919050565b60006005600084815260200190815260200160002060000160008373ffffffffffffffffffffffffffffffffffffffff1673ffffffffffffffffffffffffffffffffffffffff16815260200190815260200160002060009054906101000a900460ff16905092915050565b606060048054610cb3906135bb565b80601f0160208091040260200160405190810160405280929190818152602001828054610cdf906135bb565b8015610d2c5780601f10610d0157610100808354040283529160200191610d2c565b820191906000526020600020905b815481529060010190602001808311610d0f57829003601f168201915b5050505050905090565b600080600960008473ffffffffffffffffffffffffffffffffffffffff1673ffffffffffffffffffffffffffffffffffffffff16815260200190815260200160002080549050905060008114610e1e57600960008473ffffffffffffffffffffffffffffffffffffffff1673ffffffffffffffffffffffffffffffffffffffff168152602001908152602001600020600182610dd2919061374d565b81548110610de357610de2613781565b5b9060005260206000200160000160049054906101000a90047bffffffffffffffffffffffffffffffffffffffffffffffffffffffff16610e21565b60005b7bffffffffffffffffffffffffffffffffffffffffffffffffffffffff16915050919050565b6000801b81565b600080610e59611374565b90506000610e678286611173565b905083811015610eac576040517f08c379a0000000000000000000000000000000000000000000000000000000008152600401610ea390613822565b60405180910390fd5b610eb9828686840361137c565b60019250505092915050565b600080610ed0611374565b9050610edd8185856115d1565b600191505092915050565b83421115610f2b576040517f08c379a0000000000000000000000000000000000000000000000000000000008152600401610f229061388e565b60405180910390fd5b6000610f8d610f857fe48329057bfd03d55e49b547132e39cffd9c1820ad7b9d4c5307691425d15adf898989604051602001610f6a94939291906138ae565b60405160208183030381529060405280519060200120611de4565b858585611dfe565b9050610f9881611e29565b8614610fd9576040517f08c379a0000000000000000000000000000000000000000000000000000000008152600401610fd09061393f565b60405180910390fd5b610fe38188611c69565b50505050505050565b8342111561102f576040517f08c379a0000000000000000000000000000000000000000000000000000000008152600401611026906139ab565b60405180910390fd5b60007f6e71edae12b1b97f4d1f60370fef10105fa2faae0126114a169c64845d6126c988888861105e8c611e29565b89604051602001611074969594939291906139cb565b604051602081830303815290604052805190602001209050600061109782611de4565b905060006110a782878787611dfe565b90508973ffffffffffffffffffffffffffffffffffffffff168173ffffffffffffffffffffffffffffffffffffffff1614611117576040517f08c379a000000000000000000000000000000000000000000000000000000000815260040161110e90613a78565b60405180910390fd5b6111228a8a8a61137c565b50505050505050505050565b7f9f2df0fed2c77648de5860a4cc508cd0818c85b8b8a1ab4ceeef8d981c8956a681565b61115b82610866565b61116481611850565b61116e8383611a5f565b505050565b6000600160008473ffffffffffffffffffffffffffffffffffffffff1673ffffffffffffffffffffffffffffffffffffffff16815260200190815260200160002060008373ffffffffffffffffffffffffffffffffffffffff1673ffffffffffffffffffffffffffffffffffffffff16815260200190815260200160002054905092915050565b611202612e32565b600960008473ffffffffffffffffffffffffffffffffffffffff1673ffffffffffffffffffffffffffffffffffffffff1681526020019081526020016000208263ffffffff168154811061125957611258613781565b5b906000526020600020016040518060400160405290816000820160009054906101000a900463ffffffff1663ffffffff1663ffffffff1681526020016000820160049054906101000a90047bffffffffffffffffffffffffffffffffffffffffffffffffffffffff167bffffffffffffffffffffffffffffffffffffffffffffffffffffffff167bffffffffffffffffffffffffffffffffffffffffffffffffffffffff1681525050905092915050565b60007f01ffc9a7000000000000000000000000000000000000000000000000000000007bffffffffffffffffffffffffffffffffffffffffffffffffffffffff1916827bffffffffffffffffffffffffffffffffffffffffffffffffffffffff1916149050919050565b600033905090565b600073ffffffffffffffffffffffffffffffffffffffff168373ffffffffffffffffffffffffffffffffffffffff16036113eb576040517f08c379a00000000000000000000000000000000000000000000000000000000081526004016113e290613b0a565b60405180910390fd5b600073ffffffffffffffffffffffffffffffffffffffff168273ffffffffffffffffffffffffffffffffffffffff160361145a576040517f08c379a000000000000000000000000000000000000000000000000000000000815260040161145190613b9c565b60405180910390fd5b80600160008573ffffffffffffffffffffffffffffffffffffffff1673ffffffffffffffffffffffffffffffffffffffff16815260200190815260200160002060008473ffffffffffffffffffffffffffffffffffffffff1673ffffffffffffffffffffffffffffffffffffffff168152602001908152602001600020819055508173ffffffffffffffffffffffffffffffffffffffff168373ffffffffffffffffffffffffffffffffffffffff167f8c5be1e5ebec7d5bd14f71427d1e84f3dd0314c0f7b2291e5b200ac8c7c3b9258360405161153891906130c5565b60405180910390a3505050565b60006115518484611173565b90507fffffffffffffffffffffffffffffffffffffffffffffffffffffffffffffffff81146115cb57818110156115bd576040517f08c379a00000000000000000000000000000000000000000000000000000000081526004016115b490613c08565b60405180910390fd5b6115ca848484840361137c565b5b50505050565b600073ffffffffffffffffffffffffffffffffffffffff168373ffffffffffffffffffffffffffffffffffffffff1603611640576040517f08c379a000000000000000000000000000000000000000000000000000000000815260040161163790613c9a565b60405180910390fd5b600073ffffffffffffffffffffffffffffffffffffffff168273ffffffffffffffffffffffffffffffffffffffff16036116af576040517f08c379a00000000000000000000000000000000000000000000000000000000081526004016116a690613d2c565b60405180910390fd5b6116ba838383611e87565b60008060008573ffffffffffffffffffffffffffffffffffffffff1673ffffffffffffffffffffffffffffffffffffffff16815260200190815260200160002054905081811015611740576040517f08c379a000000000000000000000000000000000000000000000000000000000815260040161173790613dbe565b60405180910390fd5b8181036000808673ffffffffffffffffffffffffffffffffffffffff1673ffffffffffffffffffffffffffffffffffffffff16815260200190815260200160002081905550816000808573ffffffffffffffffffffffffffffffffffffffff1673ffffffffffffffffffffffffffffffffffffffff16815260200190815260200160002060008282546117d391906136ad565b925050819055508273ffffffffffffffffffffffffffffffffffffffff168473ffffffffffffffffffffffffffffffffffffffff167fddf252ad1be2c89b69c2b068fc378daa952ba7f163c4a11628f55a4df523b3ef8460405161183791906130c5565b60405180910390a361184a848484611e8c565b50505050565b6118618161185c611374565b611e9c565b50565b61186e8282610c39565b6119415760016005600084815260200190815260200160002060000160008373ffffffffffffffffffffffffffffffffffffffff1673ffffffffffffffffffffffffffffffffffffffff16815260200190815260200160002060006101000a81548160ff0219169083151502179055506118e6611374565b73ffffffffffffffffffffffffffffffffffffffff168173ffffffffffffffffffffffffffffffffffffffff16837f2f8788117e7eff1d82e926ec794901d17c78024a50270940304540a733656f0d60405160405180910390a45b5050565b60007f000000000000000000000000000000000000000000000000000000000000000073ffffffffffffffffffffffffffffffffffffffff163073ffffffffffffffffffffffffffffffffffffffff161480156119c157507f000000000000000000000000000000000000000000000000000000000000000046145b156119ee577f00000000000000000000000000000000000000000000000000000000000000009050611a5c565b611a597f00000000000000000000000000000000000000000000000000000000000000007f00000000000000000000000000000000000000000000000000000000000000007f0000000000000000000000000000000000000000000000000000000000000000611f39565b90505b90565b611a698282610c39565b15611b3d5760006005600084815260200190815260200160002060000160008373ffffffffffffffffffffffffffffffffffffffff1673ffffffffffffffffffffffffffffffffffffffff16815260200190815260200160002060006101000a81548160ff021916908315150217905550611ae2611374565b73ffffffffffffffffffffffffffffffffffffffff168173ffffffffffffffffffffffffffffffffffffffff16837ff6391f5c32d9c69d2a47ea670b442974b53935d1edc7fd64eb21e047a839171b60405160405180910390a45b5050565b6000808380549050905060005b81811015611bc0576000611b628284611f73565b905084868281548110611b7857611b77613781565b5b9060005260206000200160000160009054906101000a900463ffffffff1663ffffffff161115611baa57809250611bba565b600181611bb791906136ad565b91505b50611b4e565b60008214611c225784600183611bd6919061374d565b81548110611be757611be6613781565b5b9060005260206000200160000160049054906101000a90047bffffffffffffffffffffffffffffffffffffffffffffffffffffffff16611c25565b60005b7bffffffffffffffffffffffffffffffffffffffffffffffffffffffff169250505092915050565b611c578282611f99565b5050565b611c658282612026565b5050565b6000611c7483610a5a565b90506000611c8184610b2b565b905082600860008673ffffffffffffffffffffffffffffffffffffffff1673ffffffffffffffffffffffffffffffffffffffff16815260200190815260200160002060006101000a81548173ffffffffffffffffffffffffffffffffffffffff021916908373ffffffffffffffffffffffffffffffffffffffff1602179055508273ffffffffffffffffffffffffffffffffffffffff168273ffffffffffffffffffffffffffffffffffffffff168573ffffffffffffffffffffffffffffffffffffffff167f3134e8a2e6d97e929a7e54011ea5485d7d196dd5f0ba4d4ef95803e8e3fc257f60405160405180910390a4611d7d828483612044565b50505050565b600063ffffffff8016821115611dce576040517f08c379a0000000000000000000000000000000000000000000000000000000008152600401611dc590613e50565b60405180910390fd5b819050919050565b600081600001549050919050565b6000611df7611df1611945565b8361223d565b9050919050565b6000806000611e0f87878787612270565b91509150611e1c8161237c565b8192505050949350505050565b600080600660008473ffffffffffffffffffffffffffffffffffffffff1673ffffffffffffffffffffffffffffffffffffffff1681526020019081526020016000209050611e7681611dd6565b9150611e8181612548565b50919050565b505050565b611e9783838361255e565b505050565b611ea68282610c39565b611f3557611ecb8173ffffffffffffffffffffffffffffffffffffffff166014612589565b611ed98360001c6020612589565b604051602001611eea929190613f44565b6040516020818303038152906040526040517f08c379a0000000000000000000000000000000000000000000000000000000008152600401611f2c9190612fc0565b60405180910390fd5b5050565b60008383834630604051602001611f54959493929190613f7e565b6040516020818303038152906040528051906020012090509392505050565b60006002828418611f849190614000565b828416611f9191906136ad565b905092915050565b611fa382826127c5565b611fab612924565b7bffffffffffffffffffffffffffffffffffffffffffffffffffffffff16611fd161082d565b1115612012576040517f08c379a0000000000000000000000000000000000000000000000000000000008152600401612009906140a3565b60405180910390fd5b612020600a6129488361295e565b50505050565b6120308282612bd6565b61203e600a612dac8361295e565b50505050565b8173ffffffffffffffffffffffffffffffffffffffff168373ffffffffffffffffffffffffffffffffffffffff16141580156120805750600081115b1561223857600073ffffffffffffffffffffffffffffffffffffffff168373ffffffffffffffffffffffffffffffffffffffff161461215e57600080612107600960008773ffffffffffffffffffffffffffffffffffffffff1673ffffffffffffffffffffffffffffffffffffffff168152602001908152602001600020612dac8561295e565b915091508473ffffffffffffffffffffffffffffffffffffffff167fdec2bacdd2f05b59de34da9b523dff8be42e5e38e818c82fdb0bae774387a72483836040516121539291906140c3565b60405180910390a250505b600073ffffffffffffffffffffffffffffffffffffffff168273ffffffffffffffffffffffffffffffffffffffff1614612237576000806121e0600960008673ffffffffffffffffffffffffffffffffffffffff1673ffffffffffffffffffffffffffffffffffffffff1681526020019081526020016000206129488561295e565b915091508373ffffffffffffffffffffffffffffffffffffffff167fdec2bacdd2f05b59de34da9b523dff8be42e5e38e818c82fdb0bae774387a724838360405161222c9291906140c3565b60405180910390a250505b5b505050565b60008282604051602001612252929190614159565b60405160208183030381529060405280519060200120905092915050565b6000807f7fffffffffffffffffffffffffffffff5d576e7357a4501ddfe92f46681b20a08360001c11156122ab576000600391509150612373565b601b8560ff16141580156122c35750601c8560ff1614155b156122d5576000600491509150612373565b6000600187878787604051600081526020016040526040516122fa9493929190614190565b6020604051602081039080840390855afa15801561231c573d6000803e3d6000fd5b505050602060405103519050600073ffffffffffffffffffffffffffffffffffffffff168173ffffffffffffffffffffffffffffffffffffffff160361236a57600060019250925050612373565b80600092509250505b94509492505050565b600060048111156123905761238f6141d5565b5b8160048111156123a3576123a26141d5565b5b031561254557600160048111156123bd576123bc6141d5565b5b8160048111156123d0576123cf6141d5565b5b03612410576040517f08c379a000000000000000000000000000000000000000000000000000000000815260040161240790614250565b60405180910390fd5b60026004811115612424576124236141d5565b5b816004811115612437576124366141d5565b5b03612477576040517f08c379a000000000000000000000000000000000000000000000000000000000815260040161246e906142bc565b60405180910390fd5b6003600481111561248b5761248a6141d5565b5b81600481111561249e5761249d6141d5565b5b036124de576040517f08c379a00000000000000000000000000000000000000000000000000000000081526004016124d59061434e565b60405180910390fd5b6004808111156124f1576124f06141d5565b5b816004811115612504576125036141d5565b5b03612544576040517f08c379a000000000000000000000000000000000000000000000000000000000815260040161253b906143e0565b60405180910390fd5b5b50565b6001816000016000828254019250508190555050565b612569838383612dc2565b61258461257584610a5a565b61257e84610a5a565b83612044565b505050565b60606000600283600261259c9190614400565b6125a691906136ad565b67ffffffffffffffff8111156125bf576125be614442565b5b6040519080825280601f01601f1916602001820160405280156125f15781602001600182028036833780820191505090505b5090507f30000000000000000000000000000000000000000000000000000000000000008160008151811061262957612628613781565b5b60200101907effffffffffffffffffffffffffffffffffffffffffffffffffffffffffffff1916908160001a9053507f78000000000000000000000000000000000000000000000000000000000000008160018151811061268d5761268c613781565b5b60200101907effffffffffffffffffffffffffffffffffffffffffffffffffffffffffffff1916908160001a905350600060018460026126cd9190614400565b6126d791906136ad565b90505b6001811115612777577f3031323334353637383961626364656600000000000000000000000000000000600f86166010811061271957612718613781565b5b1a60f81b8282815181106127305761272f613781565b5b60200101907effffffffffffffffffffffffffffffffffffffffffffffffffffffffffffff1916908160001a905350600485901c94508061277090614471565b90506126da565b50600084146127bb576040517f08c379a00000000000000000000000000000000000000000000000000000000081526004016127b2906144e6565b60405180910390fd5b8091505092915050565b600073ffffffffffffffffffffffffffffffffffffffff168273ffffffffffffffffffffffffffffffffffffffff1603612834576040517f08c379a000000000000000000000000000000000000000000000000000000000815260040161282b90614552565b60405180910390fd5b61284060008383611e87565b806002600082825461285291906136ad565b92505081905550806000808473ffffffffffffffffffffffffffffffffffffffff1673ffffffffffffffffffffffffffffffffffffffff16815260200190815260200160002060008282546128a791906136ad565b925050819055508173ffffffffffffffffffffffffffffffffffffffff16600073ffffffffffffffffffffffffffffffffffffffff167fddf252ad1be2c89b69c2b068fc378daa952ba7f163c4a11628f55a4df523b3ef8360405161290c91906130c5565b60405180910390a361292060008383611e8c565b5050565b60007bffffffffffffffffffffffffffffffffffffffffffffffffffffffff905090565b6000818361295691906136ad565b905092915050565b600080600085805490509050600081146129cc5785600182612980919061374d565b8154811061299157612990613781565b5b9060005260206000200160000160049054906101000a90047bffffffffffffffffffffffffffffffffffffffffffffffffffffffff166129cf565b60005b7bffffffffffffffffffffffffffffffffffffffffffffffffffffffff1692506129fd83858763ffffffff16565b9150600081118015612a5057504386600183612a19919061374d565b81548110612a2a57612a29613781565b5b9060005260206000200160000160009054906101000a900463ffffffff1663ffffffff16145b15612add57612a5e82612dc7565b86600183612a6c919061374d565b81548110612a7d57612a7c613781565b5b9060005260206000200160000160046101000a8154817bffffffffffffffffffffffffffffffffffffffffffffffffffffffff02191690837bffffffffffffffffffffffffffffffffffffffffffffffffffffffff160217905550612bcd565b856040518060400160405280612af243611d83565b63ffffffff168152602001612b0685612dc7565b7bffffffffffffffffffffffffffffffffffffffffffffffffffffffff168152509080600181540180825580915050600190039060005260206000200160009091909190915060008201518160000160006101000a81548163ffffffff021916908363ffffffff16021790555060208201518160000160046101000a8154817bffffffffffffffffffffffffffffffffffffffffffffffffffffffff02191690837bffffffffffffffffffffffffffffffffffffffffffffffffffffffff16021790555050505b50935093915050565b600073ffffffffffffffffffffffffffffffffffffffff168273ffffffffffffffffffffffffffffffffffffffff1603612c45576040517f08c379a0000000000000000000000000000000000000000000000000000000008152600401612c3c906145e4565b60405180910390fd5b612c5182600083611e87565b60008060008473ffffffffffffffffffffffffffffffffffffffff1673ffffffffffffffffffffffffffffffffffffffff16815260200190815260200160002054905081811015612cd7576040517f08c379a0000000000000000000000000000000000000000000000000000000008152600401612cce90614676565b60405180910390fd5b8181036000808573ffffffffffffffffffffffffffffffffffffffff1673ffffffffffffffffffffffffffffffffffffffff168152602001908152602001600020819055508160026000828254612d2e919061374d565b92505081905550600073ffffffffffffffffffffffffffffffffffffffff168373ffffffffffffffffffffffffffffffffffffffff167fddf252ad1be2c89b69c2b068fc378daa952ba7f163c4a11628f55a4df523b3ef84604051612d9391906130c5565b60405180910390a3612da783600084611e8c565b505050565b60008183612dba919061374d565b905092915050565b505050565b60007bffffffffffffffffffffffffffffffffffffffffffffffffffffffff8016821115612e2a576040517f08c379a0000000000000000000000000000000000000000000000000000000008152600401612e2190614708565b60405180910390fd5b819050919050565b6040518060400160405280600063ffffffff16815260200160007bffffffffffffffffffffffffffffffffffffffffffffffffffffffff1681525090565b600080fd5b60007fffffffff0000000000000000000000000000000000000000000000000000000082169050919050565b612eaa81612e75565b8114612eb557600080fd5b50565b600081359050612ec781612ea1565b92915050565b600060208284031215612ee357612ee2612e70565b5b6000612ef184828501612eb8565b91505092915050565b60008115159050919050565b612f0f81612efa565b82525050565b6000602082019050612f2a6000830184612f06565b92915050565b600081519050919050565b600082825260208201905092915050565b60005b83811015612f6a578082015181840152602081019050612f4f565b60008484015250505050565b6000601f19601f8301169050919050565b6000612f9282612f30565b612f9c8185612f3b565b9350612fac818560208601612f4c565b612fb581612f76565b840191505092915050565b60006020820190508181036000830152612fda8184612f87565b905092915050565b600073ffffffffffffffffffffffffffffffffffffffff82169050919050565b600061300d82612fe2565b9050919050565b61301d81613002565b811461302857600080fd5b50565b60008135905061303a81613014565b92915050565b6000819050919050565b61305381613040565b811461305e57600080fd5b50565b6000813590506130708161304a565b92915050565b6000806040838503121561308d5761308c612e70565b5b600061309b8582860161302b565b92505060206130ac85828601613061565b9150509250929050565b6130bf81613040565b82525050565b60006020820190506130da60008301846130b6565b92915050565b6000806000606084860312156130f9576130f8612e70565b5b60006131078682870161302b565b93505060206131188682870161302b565b925050604061312986828701613061565b9150509250925092565b6000819050919050565b61314681613133565b811461315157600080fd5b50565b6000813590506131638161313d565b92915050565b60006020828403121561317f5761317e612e70565b5b600061318d84828501613154565b91505092915050565b61319f81613133565b82525050565b60006020820190506131ba6000830184613196565b92915050565b600080604083850312156131d7576131d6612e70565b5b60006131e585828601613154565b92505060206131f68582860161302b565b9150509250929050565b600060ff82169050919050565b61321681613200565b82525050565b6000602082019050613231600083018461320d565b92915050565b60006020828403121561324d5761324c612e70565b5b600061325b84828501613061565b91505092915050565b60006020828403121561327a57613279612e70565b5b60006132888482850161302b565b91505092915050565b61329a81613002565b82525050565b60006020820190506132b56000830184613291565b92915050565b600063ffffffff82169050919050565b6132d4816132bb565b82525050565b60006020820190506132ef60008301846132cb565b92915050565b6132fe81613200565b811461330957600080fd5b50565b60008135905061331b816132f5565b92915050565b60008060008060008060c0878903121561333e5761333d612e70565b5b600061334c89828a0161302b565b965050602061335d89828a01613061565b955050604061336e89828a01613061565b945050606061337f89828a0161330c565b935050608061339089828a01613154565b92505060a06133a189828a01613154565b9150509295509295509295565b600080600080600080600060e0888a0312156133cd576133cc612e70565b5b60006133db8a828b0161302b565b97505060206133ec8a828b0161302b565b96505060406133fd8a828b01613061565b955050606061340e8a828b01613061565b945050608061341f8a828b0161330c565b93505060a06134308a828b01613154565b92505060c06134418a828b01613154565b91505092959891949750929550565b6000806040838503121561346757613466612e70565b5b60006134758582860161302b565b92505060206134868582860161302b565b9150509250929050565b613499816132bb565b81146134a457600080fd5b50565b6000813590506134b681613490565b92915050565b600080604083850312156134d3576134d2612e70565b5b60006134e18582860161302b565b92505060206134f2858286016134a7565b9150509250929050565b613505816132bb565b82525050565b60007bffffffffffffffffffffffffffffffffffffffffffffffffffffffff82169050919050565b61353c8161350b565b82525050565b60408201600082015161355860008501826134fc565b50602082015161356b6020850182613533565b50505050565b60006040820190506135866000830184613542565b92915050565b7f4e487b7100000000000000000000000000000000000000000000000000000000600052602260045260246000fd5b600060028204905060018216806135d357607f821691505b6020821081036135e6576135e561358c565b5b50919050565b7f416363657373436f6e74726f6c3a2063616e206f6e6c792072656e6f756e636560008201527f20726f6c657320666f722073656c660000000000000000000000000000000000602082015250565b6000613648602f83612f3b565b9150613653826135ec565b604082019050919050565b600060208201905081810360008301526136778161363b565b9050919050565b7f4e487b7100000000000000000000000000000000000000000000000000000000600052601160045260246000fd5b60006136b882613040565b91506136c383613040565b92508282019050808211156136db576136da61367e565b5b92915050565b7f4552433230566f7465733a20626c6f636b206e6f7420796574206d696e656400600082015250565b6000613717601f83612f3b565b9150613722826136e1565b602082019050919050565b600060208201905081810360008301526137468161370a565b9050919050565b600061375882613040565b915061376383613040565b925082820390508181111561377b5761377a61367e565b5b92915050565b7f4e487b7100000000000000000000000000000000000000000000000000000000600052603260045260246000fd5b7f45524332303a2064656372656173656420616c6c6f77616e63652062656c6f7760008201527f207a65726f000000000000000000000000000000000000000000000000000000602082015250565b600061380c602583612f3b565b9150613817826137b0565b604082019050919050565b6000602082019050818103600083015261383b816137ff565b9050919050565b7f4552433230566f7465733a207369676e61747572652065787069726564000000600082015250565b6000613878601d83612f3b565b915061388382613842565b602082019050919050565b600060208201905081810360008301526138a78161386b565b9050919050565b60006080820190506138c36000830187613196565b6138d06020830186613291565b6138dd60408301856130b6565b6138ea60608301846130b6565b95945050505050565b7f4552433230566f7465733a20696e76616c6964206e6f6e636500000000000000600082015250565b6000613929601983612f3b565b9150613934826138f3565b602082019050919050565b600060208201905081810360008301526139588161391c565b9050919050565b7f45524332305065726d69743a206578706972656420646561646c696e65000000600082015250565b6000613995601d83612f3b565b91506139a08261395f565b602082019050919050565b600060208201905081810360008301526139c481613988565b9050919050565b600060c0820190506139e06000830189613196565b6139ed6020830188613291565b6139fa6040830187613291565b613a0760608301866130b6565b613a1460808301856130b6565b613a2160a08301846130b6565b979650505050505050565b7f45524332305065726d69743a20696e76616c6964207369676e61747572650000600082015250565b6000613a62601e83612f3b565b9150613a6d82613a2c565b602082019050919050565b60006020820190508181036000830152613a9181613a55565b9050919050565b7f45524332303a20617070726f76652066726f6d20746865207a65726f2061646460008201527f7265737300000000000000000000000000000000000000000000000000000000602082015250565b6000613af4602483612f3b565b9150613aff82613a98565b604082019050919050565b60006020820190508181036000830152613b2381613ae7565b9050919050565b7f45524332303a20617070726f766520746f20746865207a65726f20616464726560008201527f7373000000000000000000000000000000000000000000000000000000000000602082015250565b6000613b86602283612f3b565b9150613b9182613b2a565b604082019050919050565b60006020820190508181036000830152613bb581613b79565b9050919050565b7f45524332303a20696e73756666696369656e7420616c6c6f77616e6365000000600082015250565b6000613bf2601d83612f3b565b9150613bfd82613bbc565b602082019050919050565b60006020820190508181036000830152613c2181613be5565b9050919050565b7f45524332303a207472616e736665722066726f6d20746865207a65726f20616460008201527f6472657373000000000000000000000000000000000000000000000000000000602082015250565b6000613c84602583612f3b565b9150613c8f82613c28565b604082019050919050565b60006020820190508181036000830152613cb381613c77565b9050919050565b7f45524332303a207472616e7366657220746f20746865207a65726f206164647260008201527f6573730000000000000000000000000000000000000000000000000000000000602082015250565b6000613d16602383612f3b565b9150613d2182613cba565b604082019050919050565b60006020820190508181036000830152613d4581613d09565b9050919050565b7f45524332303a207472616e7366657220616d6f756e742065786365656473206260008201527f616c616e63650000000000000000000000000000000000000000000000000000602082015250565b6000613da8602683612f3b565b9150613db382613d4c565b604082019050919050565b60006020820190508181036000830152613dd781613d9b565b9050919050565b7f53616665436173743a2076616c756520646f65736e27742066697420696e203360008201527f3220626974730000000000000000000000000000000000000000000000000000602082015250565b6000613e3a602683612f3b565b9150613e4582613dde565b604082019050919050565b60006020820190508181036000830152613e6981613e2d565b9050919050565b600081905092915050565b7f416363657373436f6e74726f6c3a206163636f756e7420000000000000000000600082015250565b6000613eb1601783613e70565b9150613ebc82613e7b565b601782019050919050565b6000613ed282612f30565b613edc8185613e70565b9350613eec818560208601612f4c565b80840191505092915050565b7f206973206d697373696e6720726f6c6520000000000000000000000000000000600082015250565b6000613f2e601183613e70565b9150613f3982613ef8565b601182019050919050565b6000613f4f82613ea4565b9150613f5b8285613ec7565b9150613f6682613f21565b9150613f728284613ec7565b91508190509392505050565b600060a082019050613f936000830188613196565b613fa06020830187613196565b613fad6040830186613196565b613fba60608301856130b6565b613fc76080830184613291565b9695505050505050565b7f4e487b7100000000000000000000000000000000000000000000000000000000600052601260045260246000fd5b600061400b82613040565b915061401683613040565b92508261402657614025613fd1565b5b828204905092915050565b7f4552433230566f7465733a20746f74616c20737570706c79207269736b73206f60008201527f766572666c6f77696e6720766f74657300000000000000000000000000000000602082015250565b600061408d603083612f3b565b915061409882614031565b604082019050919050565b600060208201905081810360008301526140bc81614080565b9050919050565b60006040820190506140d860008301856130b6565b6140e560208301846130b6565b9392505050565b7f1901000000000000000000000000000000000000000000000000000000000000600082015250565b6000614122600283613e70565b915061412d826140ec565b600282019050919050565b6000819050919050565b61415361414e82613133565b614138565b82525050565b600061416482614115565b91506141708285614142565b6020820191506141808284614142565b6020820191508190509392505050565b60006080820190506141a56000830187613196565b6141b2602083018661320d565b6141bf6040830185613196565b6141cc6060830184613196565b95945050505050565b7f4e487b7100000000000000000000000000000000000000000000000000000000600052602160045260246000fd5b7f45434453413a20696e76616c6964207369676e61747572650000000000000000600082015250565b600061423a601883612f3b565b915061424582614204565b602082019050919050565b600060208201905081810360008301526142698161422d565b9050919050565b7f45434453413a20696e76616c6964207369676e6174757265206c656e67746800600082015250565b60006142a6601f83612f3b565b91506142b182614270565b602082019050919050565b600060208201905081810360008301526142d581614299565b9050919050565b7f45434453413a20696e76616c6964207369676e6174757265202773272076616c60008201527f7565000000000000000000000000000000000000000000000000000000000000602082015250565b6000614338602283612f3b565b9150614343826142dc565b604082019050919050565b600060208201905081810360008301526143678161432b565b9050919050565b7f45434453413a20696e76616c6964207369676e6174757265202776272076616c60008201527f7565000000000000000000000000000000000000000000000000000000000000602082015250565b60006143ca602283612f3b565b91506143d58261436e565b604082019050919050565b600060208201905081810360008301526143f9816143bd565b9050919050565b600061440b82613040565b915061441683613040565b925082820261442481613040565b9150828204841483151761443b5761443a61367e565b5b5092915050565b7f4e487b7100000000000000000000000000000000000000000000000000000000600052604160045260246000fd5b600061447c82613040565b91506000820361448f5761448e61367e565b5b600182039050919050565b7f537472696e67733a20686578206c656e67746820696e73756666696369656e74600082015250565b60006144d0602083612f3b565b91506144db8261449a565b602082019050919050565b600060208201905081810360008301526144ff816144c3565b9050919050565b7f45524332303a206d696e7420746f20746865207a65726f206164647265737300600082015250565b600061453c601f83612f3b565b915061454782614506565b602082019050919050565b6000602082019050818103600083015261456b8161452f565b9050919050565b7f45524332303a206275726e2066726f6d20746865207a65726f2061646472657360008201527f7300000000000000000000000000000000000000000000000000000000000000602082015250565b60006145ce602183612f3b565b91506145d982614572565b604082019050919050565b600060208201905081810360008301526145fd816145c1565b9050919050565b7f45524332303a206275726e20616d6f756e7420657863656564732062616c616e60008201527f6365000000000000000000000000000000000000000000000000000000000000602082015250565b6000614660602283612f3b565b915061466b82614604565b604082019050919050565b6000602082019050818103600083015261468f81614653565b9050919050565b7f53616665436173743a2076616c756520646f65736e27742066697420696e203260008201527f3234206269747300000000000000000000000000000000000000000000000000602082015250565b60006146f2602783612f3b565b91506146fd82614696565b604082019050919050565b60006020820190508181036000830152614721816146e5565b905091905056fea264697066735822122090e296cb94e3e01b6854db729e1bc3015fd2535911b2edb549a8dbc2e5d7a14f64736f6c63430008110033",
    "linkReferences": {},
    "deployedLinkReferences": {}
}